{
  "contractName": "Bet",
  "abi": [
    {
      "constant": false,
      "inputs": [],
      "name": "resolveBet",
      "outputs": [],
      "payable": false,
      "stateMutability": "nonpayable",
      "type": "function"
    },
    {
      "constant": false,
      "inputs": [],
      "name": "getBetInfo",
      "outputs": [
        {
          "name": "",
          "type": "address"
        },
        {
          "name": "",
          "type": "uint256"
        },
        {
          "name": "",
          "type": "address"
        },
        {
          "name": "",
          "type": "uint256"
        },
        {
          "name": "",
          "type": "address"
        },
        {
          "name": "",
          "type": "uint256"
        }
      ],
      "payable": false,
      "stateMutability": "nonpayable",
      "type": "function"
    },
    {
      "constant": false,
      "inputs": [],
      "name": "depositFunds",
      "outputs": [],
      "payable": true,
      "stateMutability": "payable",
      "type": "function"
    }
  ],
  "bytecode": "0x6060604052341561000f57600080fd5b6101e68061001e6000396000f300606060405260043610610057576000357c0100000000000000000000000000000000000000000000000000000000900463ffffffff1680638fced6261461005c578063cfe7b77014610071578063e2c41dbc14610141575b600080fd5b341561006757600080fd5b61006f61014b565b005b341561007c57600080fd5b61008461014d565b604051808773ffffffffffffffffffffffffffffffffffffffff1673ffffffffffffffffffffffffffffffffffffffff1681526020018681526020018573ffffffffffffffffffffffffffffffffffffffff1673ffffffffffffffffffffffffffffffffffffffff1681526020018481526020018373ffffffffffffffffffffffffffffffffffffffff1673ffffffffffffffffffffffffffffffffffffffff168152602001828152602001965050505050505060405180910390f35b6101496101b8565b005b565b60008060008060008073f17f52151ebef6c7334fad080c5704d77216b732600a73627306090abab3a6e1400e9345bc60c78a8bef57600a73c5fdf4076b8f3a5357c5e395ab970b5b54098fef6002849450829250809050955095509550955095509550909192939495565b5600a165627a7a7230582010c5e3272bdf544280e970065faea56702dd6282f627168906d312e1380a34600029",
  "source": "pragma solidity ^0.4.17;\n\ncontract PutUpOrShutUp {\n\n  mapping(bytes32 => Bet) bets;\n  mapping(address => bytes32[]) betsForUser;\n\n  function startNewBet(\n    address _p1Address,\n    uint p1AmountOwed,\n    address _p2Address,\n    uint p2AmountOwed,\n    address _arbAddress,\n    uint arbReward,\n    bytes32 _hashOfBet) public returns (bool) {\n    \n    return true;\n  }\n\n  function getBet(bytes32 _hashOfBet) public view returns (Bet) {\n    return bets[_hashOfBet];\n  }\n\n  function getBetsForUser(address _userAddress) public view returns (bytes32[]) {\n    return betsForUser[_userAddress];\n  }\n}\n\ncontract Bet {\n\n  function depositFunds() public payable {\n\n  }\n\n  function resolveBet() public {\n\n  }\n\n  function getBetInfo() public returns (address, uint, address, uint, address, uint) {\n\n    return (0xf17f52151EbEF6C7334FAD080c5704D77216b732, 10, 0x627306090abaB3A6e1400e9345bC60c78a8BEf57, 10, 0xC5fdf4076b8F3A5357c5E395ab970B5B54098Fef, 2);\n  }\n}\n",
  "sourcePath": "/Users/justinhamilton/ethereum/putupshutup/contracts/PutUpOrShutUp.sol",
  "compiler": {
    "name": "solc",
    "version": "0.4.19+commit.c4cbbb05.Emscripten.clang"
  },
  "schemaVersion": "1.0.1",
  "updatedAt": "2018-02-17T17:45:22.991Z"
}