{
  "contractName": "Bet",
  "abi": [
    {
      "constant": false,
      "inputs": [
        {
          "name": "_res",
          "type": "uint8"
        }
      ],
      "name": "resolveBet",
      "outputs": [],
      "payable": false,
      "stateMutability": "nonpayable",
      "type": "function"
    },
    {
      "constant": false,
      "inputs": [],
      "name": "agreeToArbitrate",
      "outputs": [],
      "payable": false,
      "stateMutability": "nonpayable",
      "type": "function"
    },
    {
      "constant": false,
      "inputs": [],
      "name": "withdrawBeforeBetLocked",
      "outputs": [],
      "payable": false,
      "stateMutability": "nonpayable",
      "type": "function"
    },
    {
      "constant": false,
      "inputs": [],
      "name": "disperseAllFunds",
      "outputs": [],
      "payable": false,
      "stateMutability": "nonpayable",
      "type": "function"
    },
    {
      "constant": false,
      "inputs": [],
      "name": "getBetInfo",
      "outputs": [
        {
          "name": "",
          "type": "address"
        },
        {
          "name": "",
          "type": "uint256"
        },
        {
          "name": "",
          "type": "uint256"
        },
        {
          "name": "",
          "type": "address"
        },
        {
          "name": "",
          "type": "uint256"
        },
        {
          "name": "",
          "type": "uint256"
        },
        {
          "name": "",
          "type": "address"
        },
        {
          "name": "",
          "type": "uint256"
        }
      ],
      "payable": false,
      "stateMutability": "nonpayable",
      "type": "function"
    },
    {
      "constant": false,
      "inputs": [],
      "name": "depositFunds",
      "outputs": [],
      "payable": true,
      "stateMutability": "payable",
      "type": "function"
    },
    {
      "inputs": [
        {
          "name": "_p1Address",
          "type": "address"
        },
        {
          "name": "_p1Owed",
          "type": "uint256"
        },
        {
          "name": "_p2Address",
          "type": "address"
        },
        {
          "name": "_p2Owed",
          "type": "uint256"
        },
        {
          "name": "_arbAddress",
          "type": "address"
        },
        {
          "name": "_arbReward",
          "type": "uint256"
        },
        {
          "name": "_hashOfBet",
          "type": "bytes32"
        }
      ],
      "payable": false,
      "stateMutability": "nonpayable",
      "type": "constructor"
    }
  ],
  "bytecode": "0x6060604052341561000f57600080fd5b60405160e080610e2283398101604052808051906020019091908051906020019091908051906020019091908051906020019091908051906020019091908051906020019091908051906020019091905050866000806101000a81548173ffffffffffffffffffffffffffffffffffffffff021916908373ffffffffffffffffffffffffffffffffffffffff1602179055508560018190555084600360006101000a81548173ffffffffffffffffffffffffffffffffffffffff021916908373ffffffffffffffffffffffffffffffffffffffff1602179055508360048190555082600660006101000a81548173ffffffffffffffffffffffffffffffffffffffff021916908373ffffffffffffffffffffffffffffffffffffffff16021790555081600781905550806008816000191690555050505050505050610cc9806101596000396000f300606060405260043610610078576000357c0100000000000000000000000000000000000000000000000000000000900463ffffffff168063a179acdb1461007d578063b3e7cde9146100a3578063b60a5b3c146100b8578063c9a487d4146100cd578063cfe7b770146100e2578063e2c41dbc146101c0575b600080fd5b341561008857600080fd5b6100a1600480803560ff169060200190919050506101ca565b005b34156100ae57600080fd5b6100b661057a565b005b34156100c357600080fd5b6100cb6105ee565b005b34156100d857600080fd5b6100e0610769565b005b34156100ed57600080fd5b6100f5610afa565b604051808973ffffffffffffffffffffffffffffffffffffffff1673ffffffffffffffffffffffffffffffffffffffff1681526020018881526020018781526020018673ffffffffffffffffffffffffffffffffffffffff1673ffffffffffffffffffffffffffffffffffffffff1681526020018581526020018481526020018373ffffffffffffffffffffffffffffffffffffffff1673ffffffffffffffffffffffffffffffffffffffff1681526020018281526020019850505050505050505060405180910390f35b6101c8610b78565b005b60008060038111156101d857fe5b600960059054906101000a900460ff1660038111156101f357fe5b1415156101ff57600080fd5b600090506000809054906101000a900473ffffffffffffffffffffffffffffffffffffffff1673ffffffffffffffffffffffffffffffffffffffff163373ffffffffffffffffffffffffffffffffffffffff1614156102805781600960026101000a81548160ff0219169083600381111561027657fe5b021790555061037e565b600360009054906101000a900473ffffffffffffffffffffffffffffffffffffffff1673ffffffffffffffffffffffffffffffffffffffff163373ffffffffffffffffffffffffffffffffffffffff1614156102fe5781600960036101000a81548160ff021916908360038111156102f457fe5b021790555061037d565b600660009054906101000a900473ffffffffffffffffffffffffffffffffffffffff1673ffffffffffffffffffffffffffffffffffffffff163373ffffffffffffffffffffffffffffffffffffffff16141561037c5781600960046101000a81548160ff0219169083600381111561037257fe5b0217905550600190505b5b5b6000600381111561038b57fe5b600960029054906101000a900460ff1660038111156103a657fe5b141580156104255750600960039054906101000a900460ff1660038111156103ca57fe5b600960029054906101000a900460ff1660038111156103e557fe5b14806104245750600960049054906101000a900460ff16600381111561040757fe5b600960029054906101000a900460ff16600381111561042257fe5b145b5b1561046157600960029054906101000a900460ff16600960056101000a81548160ff0219169083600381111561045757fe5b0217905550610503565b6000600381111561046e57fe5b600960039054906101000a900460ff16600381111561048957fe5b141580156104ca5750600960049054906101000a900460ff1660038111156104ad57fe5b600960039054906101000a900460ff1660038111156104c857fe5b145b1561050257600960039054906101000a900460ff16600960056101000a81548160ff021916908360038111156104fc57fe5b02179055505b5b6000600381111561051057fe5b600960059054906101000a900460ff16600381111561052b57fe5b141515610576576000600381111561053f57fe5b600960049054906101000a900460ff16600381111561055a57fe5b1415600960066101000a81548160ff0219169083151502179055505b5050565b600660009054906101000a900473ffffffffffffffffffffffffffffffffffffffff1673ffffffffffffffffffffffffffffffffffffffff163373ffffffffffffffffffffffffffffffffffffffff1614156105ec576001600960006101000a81548160ff0219169083151502179055505b565b6000809054906101000a900473ffffffffffffffffffffffffffffffffffffffff1673ffffffffffffffffffffffffffffffffffffffff163373ffffffffffffffffffffffffffffffffffffffff1614156106ab576000809054906101000a900473ffffffffffffffffffffffffffffffffffffffff1673ffffffffffffffffffffffffffffffffffffffff166108fc6002549081150290604051600060405180830381858888f1935050505015156106a657600080fd5b610767565b600360009054906101000a900473ffffffffffffffffffffffffffffffffffffffff1673ffffffffffffffffffffffffffffffffffffffff163373ffffffffffffffffffffffffffffffffffffffff16141561076657600360009054906101000a900473ffffffffffffffffffffffffffffffffffffffff1673ffffffffffffffffffffffffffffffffffffffff166108fc6005549081150290604051600060405180830381858888f19350505050151561076557600080fd5b5b5b565b6000600381111561077657fe5b600960059054906101000a900460ff16600381111561079157fe5b1415151561079e57600080fd5b6007543073ffffffffffffffffffffffffffffffffffffffff1631101561083d57600660009054906101000a900473ffffffffffffffffffffffffffffffffffffffff1673ffffffffffffffffffffffffffffffffffffffff166108fc3073ffffffffffffffffffffffffffffffffffffffff16319081150290604051600060405180830381858888f19350505050151561083857600080fd5b610af8565b600660009054906101000a900473ffffffffffffffffffffffffffffffffffffffff1673ffffffffffffffffffffffffffffffffffffffff166108fc6007549081150290604051600060405180830381858888f1935050505015156108a157600080fd5b600160038111156108ae57fe5b600960059054906101000a900460ff1660038111156108c957fe5b141561094c576000809054906101000a900473ffffffffffffffffffffffffffffffffffffffff1673ffffffffffffffffffffffffffffffffffffffff166108fc3073ffffffffffffffffffffffffffffffffffffffff16319081150290604051600060405180830381858888f19350505050151561094757600080fd5b610af7565b6002600381111561095957fe5b600960059054906101000a900460ff16600381111561097457fe5b14156109f857600360009054906101000a900473ffffffffffffffffffffffffffffffffffffffff1673ffffffffffffffffffffffffffffffffffffffff166108fc3073ffffffffffffffffffffffffffffffffffffffff16319081150290604051600060405180830381858888f1935050505015156109f357600080fd5b610af6565b6000809054906101000a900473ffffffffffffffffffffffffffffffffffffffff1673ffffffffffffffffffffffffffffffffffffffff166108fc60023073ffffffffffffffffffffffffffffffffffffffff1631811515610a5657fe5b049081150290604051600060405180830381858888f193505050501515610a7c57600080fd5b600360009054906101000a900473ffffffffffffffffffffffffffffffffffffffff1673ffffffffffffffffffffffffffffffffffffffff166108fc3073ffffffffffffffffffffffffffffffffffffffff16319081150290604051600060405180830381858888f193505050501515610af557600080fd5b5b5b5b565b60008060008060008060008073f17f52151ebef6c7334fad080c5704d77216b732600a600073627306090abab3a6e1400e9345bc60c78a8bef57600a600073c5fdf4076b8f3a5357c5e395ab970b5b54098fef6002869650859550839350829250809050975097509750975097509750975097509091929394959697565b6000809054906101000a900473ffffffffffffffffffffffffffffffffffffffff1673ffffffffffffffffffffffffffffffffffffffff163373ffffffffffffffffffffffffffffffffffffffff161415610be25734600260008282540192505081905550610c4a565b600360009054906101000a900473ffffffffffffffffffffffffffffffffffffffff1673ffffffffffffffffffffffffffffffffffffffff163373ffffffffffffffffffffffffffffffffffffffff161415610c4957346005600082825401925050819055505b5b600960009054906101000a900460ff168015610c6a575060015460025410155b8015610c7a575060045460055410155b15610c9b576001600960016101000a81548160ff0219169083151502179055505b5600a165627a7a7230582038cafdc668ac50605172c3578eae9a6dd58d149ac95085f7e1ab41347bcfb4ca0029",
  "source": "pragma solidity ^0.4.17;\n\ncontract PutUpOrShutUp {\n\n  mapping(bytes32 => Bet) bets;\n  mapping(address => bytes32[]) betsForUser;\n\n  function startNewBet(\n    address _p1Address,\n    uint _p1AmountOwed,\n    address _p2Address,\n    uint _p2AmountOwed,\n    address _arbAddress,\n    uint _arbReward,\n    bytes32 _hashOfBet) public returns (bool) {\n\n      Bet b = new Bet(\n        _p1Address,\n        _p1AmountOwed,\n        _p2Address,\n        _p2AmountOwed,\n        _arbAddress,\n        _arbReward,\n        _hashOfBet);\n\n    bets[_hashOfBet] = b;\n\n    // TODO: poopulate betsForUser\n    //betsForUser[_p1Address]\n    \n    return true;\n  }\n\n  function getBet(bytes32 _hashOfBet) public view returns (Bet) {\n    return bets[_hashOfBet];\n  }\n\n  function getBetsForUser(address _userAddress) public view returns (bytes32[]) {\n    return betsForUser[_userAddress];\n  }\n\n  function getDemoBet() public view returns (Bet) {\n\n    Bet b = new Bet(\n        0xf17f52151EbEF6C7334FAD080c5704D77216b732, \n        10, \n        0x627306090abaB3A6e1400e9345bC60c78a8BEf57, \n        10, \n        0xC5fdf4076b8F3A5357c5E395ab970B5B54098Fef,\n        2,\n        \"fdksfhsdfdkasfjsdklaf\"\n        );\n\n    return b;\n  }\n}\n\ncontract Bet {\n\n  enum Resolution { None, P1Wins, P2Wins, Draw }\n\n  address p1Address;\n  uint p1AmountOwed;\n  uint p1AmountPaid;\n  address p2Address;\n  uint p2AmountOwed;\n  uint p2AmountPaid;\n  address arbAddress;\n  uint arbReward;\n  bytes32 hashOfBet;\n\n  bool arbitorAgreed; // Did arbiter say they're willing to judge the outcome?\n  bool betLockedIn; // is the bet locked in? (people have paid, arbiter has agreed)\n\n  Resolution p1Resolution;\n  Resolution p2Resolution;\n  Resolution arbiterResolution;\n  Resolution officialResolution; // Derived from other resolutions. Used to control how funds are dispersed\n\n  bool arbiterDidWork;\n\n  function Bet(\n    address _p1Address,\n    uint _p1Owed,\n    address _p2Address,\n    uint _p2Owed,\n    address _arbAddress,\n    uint _arbReward,\n    bytes32 _hashOfBet\n  ) {\n    p1Address = _p1Address;\n    p1AmountOwed = _p1Owed;\n    p2Address = _p2Address;\n    p2AmountOwed = _p2Owed;\n    arbAddress = _arbAddress;\n    arbReward = _arbReward;\n    hashOfBet = _hashOfBet;\n  }\n\n  function depositFunds() public payable {\n    if ( msg.sender == p1Address) {\n      p1AmountPaid += msg.value;\n    } else if (msg.sender == p2Address) {\n      p2AmountPaid += msg.value;\n    }\n\n    if ( arbitorAgreed && p1AmountPaid >= p1AmountOwed && p2AmountPaid >= p2AmountOwed ) {\n      betLockedIn = true;\n    }\n  }\n\n  function agreeToArbitrate() public {\n    if ( msg.sender == arbAddress ) {\n      arbitorAgreed = true;\n    }\n  }\n\n  function resolveBet( Resolution _res) public {\n    require(officialResolution == Resolution.None);\n\n    bool senderIsArbiter = false;\n\n    if (msg.sender == p1Address) {\n      p1Resolution = _res;\n    } else if (msg.sender == p2Address) {\n      p2Resolution = _res;\n    } else if (msg.sender == arbAddress) {\n      arbiterResolution = _res;\n      senderIsArbiter = true;\n    }\n\n    if (p1Resolution != Resolution.None && \n      (p1Resolution == p2Resolution || p1Resolution == arbiterResolution)) {\n        // We have agreement on p1's view\n        officialResolution = p1Resolution;\n    } else if (p2Resolution != Resolution.None && p2Resolution == arbiterResolution) {\n        // We have agreement on p2's view \n        // (and it must be with arbiter, otherwise we wouldn't be in this case)\n        officialResolution = p2Resolution;\n    }\n\n    if (officialResolution != Resolution.None) {\n      arbiterDidWork = arbiterResolution != Resolution.None; // Race condition?\n    }\n  }\n\n  function withdrawBeforeBetLocked() public {\n    if (msg.sender == p1Address) {\n      p1Address.transfer(p1AmountPaid);\n    } else if (msg.sender == p2Address) {\n      p2Address.transfer(p2AmountPaid);\n    }\n  }\n\n  function disperseAllFunds() public {\n    require(officialResolution != Resolution.None);\n\n    // First ensure arbiter is paid\n    if (this.balance < arbReward) {\n      arbAddress.transfer(this.balance);\n      return;\n    } else {\n      arbAddress.transfer(arbReward);\n    }\n    \n    // if there was a winner, disperse the rest of the funds to them\n    if (officialResolution == Resolution.P1Wins) {\n      p1Address.transfer(this.balance);\n    } else if (officialResolution == Resolution.P2Wins) {\n      p2Address.transfer(this.balance);\n    } else {\n      // It was a tie -- disperse funds in proportion to what they paid in\n      // TODO: fix this... it's currently broken\n      p1Address.transfer(this.balance/2); // WRONG\n      p2Address.transfer(this.balance);  \n    }\n\n  }\n\n  function getBetInfo() public returns (address, uint, uint, address, uint, uint, address, uint) {\n\n    return (0xf17f52151EbEF6C7334FAD080c5704D77216b732, 10, 0, 0x627306090abaB3A6e1400e9345bC60c78a8BEf57, 10, 0, 0xC5fdf4076b8F3A5357c5E395ab970B5B54098Fef, 2);\n  }\n\n}\n",
  "sourcePath": "/Users/justinhamilton/ethereum/putupshutup/contracts/PutUpOrShutUp.sol",
  "compiler": {
    "name": "solc",
    "version": "0.4.19+commit.c4cbbb05.Emscripten.clang"
  },
  "schemaVersion": "1.0.1",
  "updatedAt": "2018-02-17T21:08:01.287Z"
}