{
  "contractName": "PutUpOrShutUp",
  "abi": [
    {
      "constant": false,
      "inputs": [
        {
          "name": "_p1Address",
          "type": "address"
        },
        {
          "name": "_p1AmountOwed",
          "type": "uint256"
        },
        {
          "name": "_p2Address",
          "type": "address"
        },
        {
          "name": "_p2AmountOwed",
          "type": "uint256"
        },
        {
          "name": "_arbAddress",
          "type": "address"
        },
        {
          "name": "_arbReward",
          "type": "uint256"
        },
        {
          "name": "_hashOfBet",
          "type": "bytes32"
        }
      ],
      "name": "startNewBet",
      "outputs": [
        {
          "name": "",
          "type": "bool"
        }
      ],
      "payable": false,
      "stateMutability": "nonpayable",
      "type": "function"
    },
    {
      "constant": true,
      "inputs": [
        {
          "name": "_hashOfBet",
          "type": "bytes32"
        }
      ],
      "name": "getBet",
      "outputs": [
        {
          "name": "",
          "type": "address"
        }
      ],
      "payable": false,
      "stateMutability": "view",
      "type": "function"
    },
    {
      "constant": true,
      "inputs": [
        {
          "name": "_userAddress",
          "type": "address"
        }
      ],
      "name": "getBetsForUser",
      "outputs": [
        {
          "name": "",
          "type": "bytes32[]"
        }
      ],
      "payable": false,
      "stateMutability": "view",
      "type": "function"
    }
  ],
  "bytecode": "0x6060604052341561000f57600080fd5b61033e8061001e6000396000f300606060405260043610610057576000357c0100000000000000000000000000000000000000000000000000000000900463ffffffff16806336992aba1461005c57806337e8c09e14610113578063a3a751081461017a575b600080fd5b341561006757600080fd5b6100f9600480803573ffffffffffffffffffffffffffffffffffffffff1690602001909190803590602001909190803573ffffffffffffffffffffffffffffffffffffffff1690602001909190803590602001909190803573ffffffffffffffffffffffffffffffffffffffff1690602001909190803590602001909190803560001916906020019091905050610208565b604051808215151515815260200191505060405180910390f35b341561011e57600080fd5b610138600480803560001916906020019091905050610219565b604051808273ffffffffffffffffffffffffffffffffffffffff1673ffffffffffffffffffffffffffffffffffffffff16815260200191505060405180910390f35b341561018557600080fd5b6101b1600480803573ffffffffffffffffffffffffffffffffffffffff1690602001909190505061025d565b6040518080602001828103825283818151815260200191508051906020019060200280838360005b838110156101f45780820151818401526020810190506101d9565b505050509050019250505060405180910390f35b600060019050979650505050505050565b6000806000836000191660001916815260200190815260200160002060009054906101000a900473ffffffffffffffffffffffffffffffffffffffff169050919050565b6102656102fe565b600160008373ffffffffffffffffffffffffffffffffffffffff1673ffffffffffffffffffffffffffffffffffffffff1681526020019081526020016000208054806020026020016040519081016040528092919081815260200182805480156102f257602002820191906000526020600020905b815460001916815260200190600101908083116102da575b50505050509050919050565b6020604051908101604052806000815250905600a165627a7a723058209d04716565ab5593d9964bd1010e23fc1df25e7a348ee6b45855c7aea6ed3fb80029",
  "source": "pragma solidity ^0.4.17;\n\ncontract PutUpOrShutUp {\n\n  mapping(bytes32 => Bet) bets;\n  mapping(address => bytes32[]) betsForUser;\n\n  function startNewBet(\n    address _p1Address,\n    uint _p1AmountOwed,\n    address _p2Address,\n    uint _p2AmountOwed,\n    address _arbAddress,\n    uint _arbReward,\n    bytes32 _hashOfBet) public returns (bool) {\n    \n    return true;\n  }\n\n  function getBet(bytes32 _hashOfBet) public view returns (Bet) {\n    return bets[_hashOfBet];\n  }\n\n  function getBetsForUser(address _userAddress) public view returns (bytes32[]) {\n    return betsForUser[_userAddress];\n  }\n}\n\ncontract Bet {\n\n  function depositFunds() public payable {\n\n  }\n\n  function resolveBet() public {\n\n  }\n\n  function getBetInfo() public returns (address, uint, uint, address, uint, uint, address, uint) {\n\n    return (0xf17f52151EbEF6C7334FAD080c5704D77216b732, 10, 0, 0x627306090abaB3A6e1400e9345bC60c78a8BEf57, 10, 0, 0xC5fdf4076b8F3A5357c5E395ab970B5B54098Fef, 2);\n  }\n}\n",
  "sourcePath": "/Users/justinhamilton/ethereum/putupshutup/contracts/PutUpOrShutUp.sol",
  "compiler": {
    "name": "solc",
    "version": "0.4.19+commit.c4cbbb05.Emscripten.clang"
  },
  "schemaVersion": "1.0.1",
  "updatedAt": "2018-02-17T18:21:02.752Z"
}